{
  "contractName": "Adoption",
  "abi": [
    {
      "inputs": [],
      "payable": false,
      "stateMutability": "nonpayable",
      "type": "constructor"
    },
    {
      "anonymous": false,
      "inputs": [
        {
          "indexed": false,
          "internalType": "uint256",
          "name": "petId",
          "type": "uint256"
        }
      ],
      "name": "AdoptedAnimal",
      "type": "event"
    },
    {
      "anonymous": false,
      "inputs": [
        {
          "indexed": false,
          "internalType": "uint256",
          "name": "petId",
          "type": "uint256"
        }
      ],
      "name": "ReturnedAnimal",
      "type": "event"
    },
    {
      "anonymous": false,
      "inputs": [
        {
          "indexed": true,
          "internalType": "uint256",
          "name": "_candidateId",
          "type": "uint256"
        }
      ],
      "name": "votedEvent",
      "type": "event"
    },
    {
      "constant": true,
      "inputs": [
        {
          "internalType": "uint256",
          "name": "",
          "type": "uint256"
        }
      ],
      "name": "adopters",
      "outputs": [
        {
          "internalType": "address",
          "name": "",
          "type": "address"
        }
      ],
      "payable": false,
      "stateMutability": "view",
      "type": "function"
    },
    {
      "constant": true,
      "inputs": [
        {
          "internalType": "uint256",
          "name": "",
          "type": "uint256"
        }
      ],
      "name": "candidates",
      "outputs": [
        {
          "internalType": "uint256",
          "name": "id",
          "type": "uint256"
        },
        {
          "internalType": "string",
          "name": "name",
          "type": "string"
        },
        {
          "internalType": "uint256",
          "name": "voteCount",
          "type": "uint256"
        }
      ],
      "payable": false,
      "stateMutability": "view",
      "type": "function"
    },
    {
      "constant": true,
      "inputs": [],
      "name": "candidatesCount",
      "outputs": [
        {
          "internalType": "uint256",
          "name": "",
          "type": "uint256"
        }
      ],
      "payable": false,
      "stateMutability": "view",
      "type": "function"
    },
    {
      "constant": true,
      "inputs": [
        {
          "internalType": "address",
          "name": "",
          "type": "address"
        }
      ],
      "name": "voters",
      "outputs": [
        {
          "internalType": "bool",
          "name": "",
          "type": "bool"
        }
      ],
      "payable": false,
      "stateMutability": "view",
      "type": "function"
    },
    {
      "constant": false,
      "inputs": [
        {
          "internalType": "uint256",
          "name": "petId",
          "type": "uint256"
        }
      ],
      "name": "adopt",
      "outputs": [
        {
          "internalType": "uint256",
          "name": "",
          "type": "uint256"
        }
      ],
      "payable": false,
      "stateMutability": "nonpayable",
      "type": "function"
    },
    {
      "constant": true,
      "inputs": [],
      "name": "getAdopters",
      "outputs": [
        {
          "internalType": "address[16]",
          "name": "",
          "type": "address[16]"
        }
      ],
      "payable": false,
      "stateMutability": "view",
      "type": "function"
    },
    {
      "constant": false,
      "inputs": [
        {
          "internalType": "uint256",
          "name": "petId",
          "type": "uint256"
        },
        {
          "internalType": "address",
          "name": "newOwner",
          "type": "address"
        }
      ],
      "name": "sendPet",
      "outputs": [],
      "payable": false,
      "stateMutability": "nonpayable",
      "type": "function"
    },
    {
      "constant": false,
      "inputs": [
        {
          "internalType": "uint256",
          "name": "petId",
          "type": "uint256"
        }
      ],
      "name": "returnAnimal",
      "outputs": [
        {
          "internalType": "uint256",
          "name": "",
          "type": "uint256"
        }
      ],
      "payable": false,
      "stateMutability": "nonpayable",
      "type": "function"
    },
    {
      "constant": false,
      "inputs": [
        {
          "internalType": "uint256",
          "name": "_candidateId",
          "type": "uint256"
        }
      ],
      "name": "vote",
      "outputs": [],
      "payable": false,
      "stateMutability": "nonpayable",
      "type": "function"
    }
  ],
  "bytecode": "0x60806040523480156200001157600080fd5b50620000586040518060400160405280600681526020017f46726965646100000000000000000000000000000000000000000000000000008152506200047860201b60201c565b6200009e6040518060400160405280600481526020017f47696e61000000000000000000000000000000000000000000000000000000008152506200047860201b60201c565b620000e46040518060400160405280600781526020017f436f6c6c696e73000000000000000000000000000000000000000000000000008152506200047860201b60201c565b6200012a6040518060400160405280600781526020017f4d656c69737361000000000000000000000000000000000000000000000000008152506200047860201b60201c565b620001706040518060400160405280600781526020017f4a65616e696e65000000000000000000000000000000000000000000000000008152506200047860201b60201c565b620001b66040518060400160405280600581526020017f456c7669610000000000000000000000000000000000000000000000000000008152506200047860201b60201c565b620001fc6040518060400160405280600781526020017f4c617469736861000000000000000000000000000000000000000000000000008152506200047860201b60201c565b620002426040518060400160405280600781526020017f436f6c656d616e000000000000000000000000000000000000000000000000008152506200047860201b60201c565b620002886040518060400160405280600781526020017f4e6963686f6c65000000000000000000000000000000000000000000000000008152506200047860201b60201c565b620002ce6040518060400160405280600481526020017f4672616e000000000000000000000000000000000000000000000000000000008152506200047860201b60201c565b620003146040518060400160405280600681526020017f4c656f6e6f7200000000000000000000000000000000000000000000000000008152506200047860201b60201c565b6200035a6040518060400160405280600481526020017f4465616e000000000000000000000000000000000000000000000000000000008152506200047860201b60201c565b620003a06040518060400160405280600981526020017f53746576656e736f6e00000000000000000000000000000000000000000000008152506200047860201b60201c565b620003e66040518060400160405280600881526020017f4b72697374696e610000000000000000000000000000000000000000000000008152506200047860201b60201c565b6200042c6040518060400160405280600581526020017f457468656c0000000000000000000000000000000000000000000000000000008152506200047860201b60201c565b620004726040518060400160405280600581526020017f54657272790000000000000000000000000000000000000000000000000000008152506200047860201b60201c565b620005a5565b601260008154809291906001019190505550604051806060016040528060125481526020018281526020016000815250601160006012548152602001908152602001600020600082015181600001556020820151816001019080519060200190620004e5929190620004f6565b506040820151816002015590505050565b828054600181600116156101000203166002900490600052602060002090601f016020900481019282601f106200053957805160ff19168380011785556200056a565b828001600101855582156200056a579182015b82811115620005695782518255916020019190600101906200054c565b5b5090506200057991906200057d565b5090565b620005a291905b808211156200059e57600081600090555060010162000584565b5090565b90565b61093380620005b56000396000f3fe608060405234801561001057600080fd5b50600436106100935760003560e01c806343ae80d31161006657806343ae80d3146101df5780638588b2c51461024d578063a3ec138d1461028f578063a9b1a854146102eb578063c20922631461032d57610093565b80630121b93f146100985780632d35a8a2146100c65780633477ee2e146100e45780633de4eb1714610199575b600080fd5b6100c4600480360360208110156100ae57600080fd5b810190808035906020019092919050505061037b565b005b6100ce61049b565b6040518082815260200191505060405180910390f35b610110600480360360208110156100fa57600080fd5b81019080803590602001909291905050506104a1565b6040518084815260200180602001838152602001828103825284818151815260200191508051906020019080838360005b8381101561015c578082015181840152602081019050610141565b50505050905090810190601f1680156101895780820380516001836020036101000a031916815260200191505b5094505050505060405180910390f35b6101a1610563565b6040518082601060200280838360005b838110156101cc5780820151818401526020810190506101b1565b5050505090500191505060405180910390f35b61020b600480360360208110156101f557600080fd5b81019080803590602001909291905050506105e4565b604051808273ffffffffffffffffffffffffffffffffffffffff1673ffffffffffffffffffffffffffffffffffffffff16815260200191505060405180910390f35b6102796004803603602081101561026357600080fd5b8101908080359060200190929190505050610617565b6040518082815260200191505060405180910390f35b6102d1600480360360208110156102a557600080fd5b81019080803573ffffffffffffffffffffffffffffffffffffffff1690602001909291905050506106bf565b604051808215151515815260200191505060405180910390f35b6103176004803603602081101561030157600080fd5b81019080803590602001909291905050506106df565b6040518082815260200191505060405180910390f35b6103796004803603604081101561034357600080fd5b8101908080359060200190929190803573ffffffffffffffffffffffffffffffffffffffff1690602001909291905050506107ea565b005b601060003373ffffffffffffffffffffffffffffffffffffffff1673ffffffffffffffffffffffffffffffffffffffff16815260200190815260200160002060009054906101000a900460ff16156103d257600080fd5b6000811180156103e457506012548111155b6103ed57600080fd5b6001601060003373ffffffffffffffffffffffffffffffffffffffff1673ffffffffffffffffffffffffffffffffffffffff16815260200190815260200160002060006101000a81548160ff0219169083151502179055506011600082815260200190815260200160002060020160008154809291906001019190505550807ffff3c900d938d21d0990d786e819f29b8d05c1ef587b462b939609625b684b1660405160405180910390a250565b60125481565b6011602052806000526040600020600091509050806000015490806001018054600181600116156101000203166002900480601f0160208091040260200160405190810160405280929190818152602001828054600181600116156101000203166002900480156105535780601f1061052857610100808354040283529160200191610553565b820191906000526020600020905b81548152906001019060200180831161053657829003601f168201915b5050505050908060020154905083565b61056b6108db565b60006010806020026040519081016040528092919082601080156105da576020028201915b8160009054906101000a900473ffffffffffffffffffffffffffffffffffffffff1673ffffffffffffffffffffffffffffffffffffffff1681526020019060010190808311610590575b5050505050905090565b600081601081106105f157fe5b016000915054906101000a900473ffffffffffffffffffffffffffffffffffffffff1681565b600080821015801561062a5750600f8211155b61063357600080fd5b336000836010811061064157fe5b0160006101000a81548173ffffffffffffffffffffffffffffffffffffffff021916908373ffffffffffffffffffffffffffffffffffffffff1602179055507fab56fd8de4404d6cdebeb82369b2b2b6280895a71028d2121bb173049a3be57f826040518082815260200191505060405180910390a1819050919050565b60106020528060005260406000206000915054906101000a900460ff1681565b60008082101580156106f25750600f8211155b6106fb57600080fd5b3373ffffffffffffffffffffffffffffffffffffffff166000836010811061071f57fe5b0160009054906101000a900473ffffffffffffffffffffffffffffffffffffffff1673ffffffffffffffffffffffffffffffffffffffff1614156107ab57600080836010811061076b57fe5b0160006101000a81548173ffffffffffffffffffffffffffffffffffffffff021916908373ffffffffffffffffffffffffffffffffffffffff1602179055505b7fe6e7ae460b776c1fc4a50a0a04dbcb8354df9dca23a2e2724b56bb20c757087c826040518082815260200191505060405180910390a1819050919050565b600073ffffffffffffffffffffffffffffffffffffffff168173ffffffffffffffffffffffffffffffffffffffff16141561082457600080fd5b3373ffffffffffffffffffffffffffffffffffffffff166000836010811061084857fe5b0160009054906101000a900473ffffffffffffffffffffffffffffffffffffffff1673ffffffffffffffffffffffffffffffffffffffff161461088a57600080fd5b806000836010811061089857fe5b0160006101000a81548173ffffffffffffffffffffffffffffffffffffffff021916908373ffffffffffffffffffffffffffffffffffffffff1602179055505050565b60405180610200016040528060109060208202803883398082019150509050509056fea265627a7a72315820cbfe5c20be54296471953f91b185432fadeaea0640722dc5a06b1e4dddc25dae64736f6c63430005110032",
  "source": "pragma solidity ^0.5.0;\r\n\r\ncontract Adoption {\r\n\taddress[16] public adopters;\r\n\r\n\tevent AdoptedAnimal(uint petId);\r\n\r\n\t// Adopting a pet\r\n\tfunction adopt(uint petId) public returns (uint) {\r\n  \t\trequire(petId >= 0 && petId <= 15);\r\n\r\n  \t\tadopters[petId] = msg.sender;\r\n\r\n\t\temit AdoptedAnimal(petId);\r\n\r\n \t\treturn petId;\r\n\t}\r\n\r\n\t// Retrieving the adopters\r\n\tfunction getAdopters() public view returns (address[16] memory) {\r\n \t \treturn adopters;\r\n\t}\r\n\r\n \tfunction sendPet(uint petId, address newOwner) public {\r\n        \trequire(newOwner != address(0));\r\n        \trequire(adopters[petId] == msg.sender);\r\n\r\n        \tadopters[petId] = newOwner;\r\n    \t}\r\n\r\n\r\n\r\n\r\n    \tevent ReturnedAnimal(uint petId);\r\n\r\n    \tfunction returnAnimal(uint petId) public returns (uint) {\r\n        \trequire(petId >= 0 && petId <= 15);\r\n\r\n        \t// If the animal has been adopted by msg.sender, the animal can be returned\r\n        \tif (adopters[petId] == msg.sender) {\r\n            \t\t// \"Return\" an animal by setting the address of it's adopter back to 0\r\n            \t\tadopters[petId] = address(0);\r\n        \t}\r\n\r\n        \temit ReturnedAnimal(petId);\r\n\r\n        \treturn petId;\r\n    \t}\r\n\r\n\t// Model a Candidate for voting\r\n\tstruct Candidate {\r\n\t\tuint id;\r\n\t\tstring name;\r\n\t\tuint voteCount;\r\n\t}\r\n\tmapping(address => bool) public voters;\r\n\tmapping(uint => Candidate) public candidates;\r\n\tuint public candidatesCount;\r\n\r\n\tevent votedEvent (\r\n\t\tuint indexed _candidateId\r\n\t);\r\n\r\n\tconstructor () public {\r\n\t\taddCandidate(\"Frieda\");\r\n\t\taddCandidate(\"Gina\");\r\n\t\taddCandidate(\"Collins\");\r\n\t\taddCandidate(\"Melissa\");\r\n\t\taddCandidate(\"Jeanine\");\r\n\t\taddCandidate(\"Elvia\");\r\n\t\taddCandidate(\"Latisha\");\r\n\t\taddCandidate(\"Coleman\");\r\n\t\taddCandidate(\"Nichole\");\r\n\t\taddCandidate(\"Fran\");\r\n\t\taddCandidate(\"Leonor\");\r\n\t\taddCandidate(\"Dean\");\r\n\t\taddCandidate(\"Stevenson\");\r\n\t\taddCandidate(\"Kristina\");\r\n\t\taddCandidate(\"Ethel\");\r\n\t\taddCandidate(\"Terry\");\r\n\t}\r\n\r\n\tfunction addCandidate(string memory _name) private {\r\n\t\tcandidatesCount ++;\r\n\t\tcandidates[candidatesCount] = Candidate(candidatesCount, _name, 0);\r\n\t}\r\n\r\n\tfunction vote(uint _candidateId) public {\r\n                //can not vote more than once\r\n\t\trequire(!voters[msg.sender]);\r\n\t\trequire(_candidateId > 0 && _candidateId <= candidatesCount);\r\n\t\t// record vote status\r\n\t\tvoters[msg.sender] = true;\r\n\t\t// update the vote Count\r\n\t\tcandidates[_candidateId].voteCount ++;\r\n\r\n\t\temit votedEvent(_candidateId);\r\n\t}\r\n\r\n\r\n}",
  "sourcePath": "C:/Users/87032/OneDrive/Desktop/course/1050/final/pet-shop-box-master-completed_with_donation/pet-shop-box-master/contracts/Adoption.sol",
  "compiler": {
    "name": "solc",
    "version": "0.5.17+commit.d19bba13.Emscripten.clang"
  },
  "schemaVersion": "3.0.22",
  "updatedAt": "2022-04-07T16:04:46.450Z",
  "networkType": "ethereum",
  "devdoc": {
    "methods": {}
  },
  "userdoc": {
    "methods": {}
  }
}